{
  "_format": "hh-sol-artifact-1",
  "contractName": "WavePortal",
  "sourceName": "contracts/WavePortal.sol",
  "abi": [
    {
      "inputs": [],
      "stateMutability": "nonpayable",
      "type": "constructor"
    },
    {
      "inputs": [],
      "name": "getTimesTen",
      "outputs": [
        {
          "internalType": "uint256",
          "name": "",
          "type": "uint256"
        }
      ],
      "stateMutability": "view",
      "type": "function"
    },
    {
      "inputs": [],
      "name": "getTotalWaves",
      "outputs": [
        {
          "internalType": "uint256",
          "name": "",
          "type": "uint256"
        }
      ],
      "stateMutability": "view",
      "type": "function"
    },
    {
      "inputs": [],
      "name": "timesTen",
      "outputs": [],
      "stateMutability": "nonpayable",
      "type": "function"
    },
    {
      "inputs": [],
      "name": "wave",
      "outputs": [],
      "stateMutability": "nonpayable",
      "type": "function"
    }
  ],
  "bytecode": "0x608060405234801561001057600080fd5b5061003c6040518060600160405280602581526020016107d06025913961004160201b6101aa1760201c565b6101bb565b6100dd816040516024016100559190610199565b6040516020818303038152906040527f41304fac000000000000000000000000000000000000000000000000000000007bffffffffffffffffffffffffffffffffffffffffffffffffffffffff19166020820180517bffffffffffffffffffffffffffffffffffffffffffffffffffffffff83818316178352505050506100e060201b60201c565b50565b60008151905060006a636f6e736f6c652e6c6f679050602083016000808483855afa5050505050565b600081519050919050565b600082825260208201905092915050565b60005b83811015610143578082015181840152602081019050610128565b60008484015250505050565b6000601f19601f8301169050919050565b600061016b82610109565b6101758185610114565b9350610185818560208601610125565b61018e8161014f565b840191505092915050565b600060208201905081810360008301526101b38184610160565b905092915050565b610606806101ca6000396000f3fe608060405234801561001057600080fd5b506004361061004c5760003560e01c80636fe15b44146100515780639a2cdc081461005b5780639af0b13914610079578063e9f07a4514610097575b600080fd5b6100596100a1565b005b6100636100fb565b60405161007091906103bd565b60405180910390f35b610081610146565b60405161008e91906103bd565b60405180910390f35b61009f610150565b005b60016000808282546100b39190610407565b925050819055506100f96040518060400160405280600d81526020017f257320686173207761766564210000000000000000000000000000000000000081525033610243565b565b600061013e6040518060400160405280601781526020017f5765206861766520256420746f74616c207761766573210000000000000000008152506000546102df565b600054905090565b6000600154905090565b600a60016000828254610163919061043b565b925050819055506101a86040518060400160405280601581526020017f436f64696e6720697473207072657474792066756e00000000000000000000008152506101aa565b565b610240816040516024016101be919061050d565b6040516020818303038152906040527f41304fac000000000000000000000000000000000000000000000000000000007bffffffffffffffffffffffffffffffffffffffffffffffffffffffff19166020820180517bffffffffffffffffffffffffffffffffffffffffffffffffffffffff838183161783525050505061037b565b50565b6102db8282604051602401610259929190610570565b6040516020818303038152906040527f319af333000000000000000000000000000000000000000000000000000000007bffffffffffffffffffffffffffffffffffffffffffffffffffffffff19166020820180517bffffffffffffffffffffffffffffffffffffffffffffffffffffffff838183161783525050505061037b565b5050565b61037782826040516024016102f59291906105a0565b6040516020818303038152906040527fb60e72cc000000000000000000000000000000000000000000000000000000007bffffffffffffffffffffffffffffffffffffffffffffffffffffffff19166020820180517bffffffffffffffffffffffffffffffffffffffffffffffffffffffff838183161783525050505061037b565b5050565b60008151905060006a636f6e736f6c652e6c6f679050602083016000808483855afa5050505050565b6000819050919050565b6103b7816103a4565b82525050565b60006020820190506103d260008301846103ae565b92915050565b7f4e487b7100000000000000000000000000000000000000000000000000000000600052601160045260246000fd5b6000610412826103a4565b915061041d836103a4565b9250828201905080821115610435576104346103d8565b5b92915050565b6000610446826103a4565b9150610451836103a4565b925082820261045f816103a4565b91508282048414831517610476576104756103d8565b5b5092915050565b600081519050919050565b600082825260208201905092915050565b60005b838110156104b757808201518184015260208101905061049c565b60008484015250505050565b6000601f19601f8301169050919050565b60006104df8261047d565b6104e98185610488565b93506104f9818560208601610499565b610502816104c3565b840191505092915050565b6000602082019050818103600083015261052781846104d4565b905092915050565b600073ffffffffffffffffffffffffffffffffffffffff82169050919050565b600061055a8261052f565b9050919050565b61056a8161054f565b82525050565b6000604082019050818103600083015261058a81856104d4565b90506105996020830184610561565b9392505050565b600060408201905081810360008301526105ba81856104d4565b90506105c960208301846103ae565b939250505056fea26469706673582212204422595404ee2c9ec399df386cd2bf32e77589f09082020205d63dc0216fc1aa64736f6c63430008110033596f20796f2c204920616d206120636f6e747261637420616e64204920616d20736d617274",
  "linkReferences": {},
  "deployedLinkReferences": {}
}